:020000040800F2
:1000000040D7002025020008CDF3000899C8000859
:100010003DF30008ED1A0008AD3B010800000000A8
:100020000000000000000000000000005311010863
:100030003941000800000000B90001084D22010804
:100040003F0200083F0200083F0200083105010896
:100050003F0200083F0200083F020008D96600087E
:100060003F0200083F0200083F0200083F0200086C
:100070003F0200083F0200083F0200083F0200085C
:100080003F0200083F020008090C00083F02000878
:10009000E13801083F0200083F0200083F02000863
:1000A0003F020008692301083F0200083F020008E0
:1000B000A5250108752601081D2801083F02000832
:1000C0003F0200083F0200083F0200083F0200080C
:1000D0003F0200083F020008B1320108E133010885
:1000E000C56500083F020008933601083F0200087A
:1000F0003F0200083F0200083F0200083F020008DC
:100100003F0200083F020008A12901083F02000841
:100110003F0200083F0200083F020008C929010809
:100120003F0200083F0200083F0200083F020008AB
:1001300000F002F800F066F80AA090E8000C824493
:100140008344AAF10107DA4501D100F05BF8AFF270
:10015000090EBAE80F0013F0010F18BFFB1A43F0A5
:1001600001031847440D0300640D03000A444FF0D7
:10017000000C10F8013B13F0070408BF10F8014B06
:100180001D1108BF10F8015B641E05D010F8016B4B
:10019000641E01F8016BF9D113F0080F1EBF10F8AF
:1001A000014BAD1C0C1B09D16D1E58BF01F801CBD2
:1001B000FAD505E014F8016B01F8016B6D1EF9D555
:1001C0009142D6D37047000000230024002500266A
:1001D000103A28BF78C1FBD8520728BF30C148BFAA
:1001E0000B607047642900F0F780732900F02384C6
:1001F000002070471FB59DE8030000F05DFB1FBDA8
:1002000010B510BD00F07EFC1146FFF7F3FF1FF0A4
:1002100043FD00F09CFC03B4FFF7F2FF03BC00F0C9
:10022000CDFC00000948804709480047FEE7FEE78B
:10023000FEE7FEE7FEE7FEE7FEE7FEE7FEE7FEE796
:1002400004480549054A064B70470000A1220108F1
:100250003101000840AF002040D7002040CF0020EF
:1002600040CF002070B5064600F00AFB056806F195
:100270000B0020F00704B4429CBF002070BD2B4649
:100280006A68BAB11068A04210D304F1080188422C
:100290003CBF5068586007D351681019416011681D
:1002A000091B016058601460101D70BD1346526830
:1002B000002AE7D12146284600F0EAFA0028DED1DC
:1002C00070BD70B50446051F00F0DAFA0068002C16
:1002D00014BF446870BD002C18BFAC423CBF204620
:1002E0006468F8D301680A18AA4218BF456003D1B0
:1002F0002A6805461144016028684119A1421CBFC3
:100300006C6070BD6168696021680844286070BDD8
:100310000FB41CB5074B06AA7B44694600900598AC
:1003200000F05FFB0020694600F06EFB1CBC5DF82E
:1003300014FB0000ED06000070B5044685690068F6
:10034000C10601D5302600E02026C00707D070BDC9
:10035000D4E9012130469047206A401C20626D1E7E
:10036000F6D570BD70B5044685690078C00707D121
:1003700070BDD4E9012120209047206A401C2062F2
:100380006D1EF6D570BD70B50C460546012A05D028
:100390002878800600D5EA69002302E0012305E001
:1003A0005B1C934202D2E05C0028F9D1A869E618F0
:1003B000C01AA861286A184428622846FFF7BCFFC3
:1003C00004E0D5E9012114F8010B9047B442F8D3B9
:1003D0002846FFF7C7FF70BD2DE9F041064600240F
:1003E00010687529314616A510D0AFF3008000289B
:1003F00002DA404213A507E031688A0701D512A549
:1004000002E0490704D511A5012401E0AFF3008003
:1004100000210A2206F1240709E0B0FBF2FCB0FB40
:10042000F2F302FB1C00303078541846491C0028B7
:10043000F3D123462A463046BDE8F04100F072BAB7
:10044000000000002D0000002B0000002000000034
:100450002DE9F05F894604464FF0000ADFF824B129
:10046000FB44C0F820A02046E168884700287DD0E2
:10047000252806D0D4E901219047206A401C20623B
:10048000F1E700255F462046E168884720280646B8
:1004900007DB312E05D2B81910F8200C08B105433E
:1004A000F1E7A80701D525F00405C4F81CA0002732
:1004B000C4F818A02A2E09D030461EF06BF838B3C5
:1004C00004EB8708303EC8F8186019E059F8041B9F
:1004D000204604EB87029161E1688847012F0646B8
:1004E00018D1E069002820DA25F020051DE0D8F8B1
:1004F000180000EB800006EB40003038C8F8180008
:100500002046E168884706461EF044F80028EED1F0
:10051000012F0AD02E2E08D12046E16888477F1C83
:100520000646022F45F02005C4DBA069002803DA47
:10053000404245F00105A061E80701D025F0100513
:10054000A6B1A6F14100192802D8203645F400656D
:100550004A463146204625604D46FFF743FE60B1CE
:10056000012807D0ED1D25F0070000E007E000F1AD
:10057000080978E705F1040975E730467AE7206A4B
:10058000BDE8F09FB809030040EA010310B59B07DE
:100590000FD1042A0DD310C808C9121F9C42F8D0ED
:1005A00020BA19BA884201D9012010BD4FF0FF309E
:1005B00010BD1AB1D30703D0521C07E0002010BDB4
:1005C00010F8013B11F8014B1B1B07D110F8013B40
:1005D00011F8014B1B1B01D1921EF1D1184610BD21
:1005E00040EA0103024630B59B0710D14FF00134B9
:1005F00000E008C208C91D1B9D4315EAC41FF8D0BE
:1006000013F0FF0102F8011B0DD01B0AF8E711F8E7
:10061000013B002B02F8013B05D011F8013B002BF8
:1006200002F8013BF3D130BD10B5431C02E010F8D5
:10063000011B71B18107FAD14FF0013202C88C1A47
:100640008C4314EAC211F9D0C01A0A0603D0C01EA6
:1006500010BDC01A10BD0A0401D0801E10BD0902D1
:10066000FCD0401E10BD032A40F2308010F0030C75
:1006700000F0158011F8013BBCF1020F624498BFF5
:1006800011F801CB00F8013B38BF11F8013BA2F192
:10069000040298BF00F801CB38BF00F8013B11F00D
:1006A000030300F06780083AC0F0088051F8043B6B
:1006B000083A51F804CBA0E80810F5E7121D5CBF1A
:1006C00051F8043B40F8043BAFF30080D20724BF4D
:1006D00011F8013B11F801CB48BF11F8012B24BFE1
:1006E00000F8013B00F801CB48BF00F8012B704730
:1006F000431A28BF9A427FF6B6AF032A104411442A
:1007000040F2268010F0030F1EBF11F8013D521E6B
:1007100000F8013D10F0030F7FF4F6AF11F0030372
:1007200000F0A081083AC0F00B8051F8043D083A6F
:1007300051F804CD40F8043D40F804CDFFF7F3BF75
:10074000121D5CBF51F8043D40F8043DAFF300803A
:10075000D20724BF11F8013D11F801CD48BF11F8AF
:10076000012C24BF00F8013D00F801CD48BF00F87E
:10077000012C704710B5203AC0F00B80B1E818503A
:10078000203AA0E81850B1E81850A0E81850BFF47B
:10079000F5AF5FEA027C24BFB1E81850A0E818501A
:1007A00044BF18C918C0BDE810405FEA827C24BF6E
:1007B00051F8043B40F8043B08BF7047D20728BFFC
:1007C00031F8023B48BF11F8012B28BF20F8023B4B
:1007D00048BF00F8012B704702F0FF0343EA0322F1
:1007E00042EA024200F002B84FF000020429C0F0D1
:1007F000128010F0030C00F01B80CCF1040CBCF153
:10080000020F18BF00F8012BA8BF20F8022BA1EBA4
:100810000C0100F00DB85FEAC17C24BF00F8012B89
:1008200000F8012B48BF00F8012B70474FF0000281
:1008300000B5134694469646203922BFA0E80C50D6
:10084000A0E80C50B1F12001BFF4F7AF090728BFB1
:10085000A0E80C5048BF0CC05DF804EB890028BF2D
:1008600040F8042B08BF704748BF20F8022B11F056
:10087000804F18BF00F8012B7047704770477047D2
:1008800000487047E8AE00207047704770477047D7
:1008900038B504460A4600206946AFF300800028B8
:1008A00008BF38BD02460099204600F009F9012032
:1008B00038BD012000F01EB9F8B5AFF30080054641
:1008C00000200C46102000BF0646A819A0420DD9F2
:1008D000324669460020AFF30080070008BF00F0F1
:1008E00009F90098A04218BF0546C419FFF7C8FFD0
:1008F00005600746F01D20F007004619284600F065
:100900000AF8B44208BFF8BDA21B31463868BDE8FA
:10091000F84000F0D5B800210160C0E9011070472F
:10092000102070472DE9F0470D469946924604463F
:1009300000F124080168880604D5E06921F010015F
:10094000216000E00120A84201DD471B00E00027F4
:10095000A1697A1902EB0900081AA0612078C00683
:1009600002D42046FFF7E8FC002608E0D4E9012184
:100970001AF806009047206A401C761C20624E45FB
:10098000F4DB2078C0060AD52046FFF7D5FC06E048
:10099000D4E9012130209047206A401C2062381E93
:1009A000A7F10107F4DC07E0D4E9012118F80500FC
:1009B0009047206A401C2062281EA5F10105F3DC47
:1009C0002046FFF7CFFC2078000602D50220BDE8C4
:1009D000F0870120FBE7000001694A1C02610878EA
:1009E000704700B58FB0CDE901310021059105496F
:1009F0007944CDE9031011466846FFF729FD0FB091
:100A000000BD0000E5FFFFFF0A6802F8010B0A6065
:100A1000704710B5436913B1AFF3008001E0FFF7F1
:100A2000B2FC012010BD127800F124010A700022EE
:100A30004A700122EDE711684FF0FF32E9E7431AEF
:100A400028BF9A427FF696AE104410F0030F11446F
:100A50001EBF11F8013D521E00F8013D10F0030FBA
:100A60007FF4F6AF103AC0F00A8010B531E91850A3
:100A7000103A20E91850BFF4F9AFBDE81040530711
:100A800024BF31E9081020E9081044BF51F8043DA3
:100A900040F8043D12F0030F08BF7047D20728BF8B
:100AA00031F8023D48BF11F8012C28BF20F8023D63
:100AB00048BF00F8012C704700487047E0AE0020A6
:100AC000034640688C46002818BF88423CBF034656
:100AD0004068F8D318681844884207D00CF1030026
:100AE00020F00700001D411A521A0146081D0A6035
:100AF000FFF7E7BB10B500F039F8BDE8104000F093
:100B00002FB870477546FFF7D7FFAE460500694618
:100B1000534620F00700854618B020B5FFF790FB3C
:100B2000BDE820404FF000064FF000074FF00008EE
:100B30004FF0000B21F00701AC46ACE8C009ACE86F
:100B4000C009ACE8C009ACE8C0098D46704710B5D3
:100B50000446AFF300802046BDE81040FFF75BBBC2
:100B6000002801D000F02AB87047000010B5012815
:100B700005D0002103A000F027F8012010BD09A135
:100B8000F8E7000053494752544D454D3A204F7500
:100B900074206F662068656170206D656D6F727975
:100BA000000000003A2048656170206D656D6F722D
:100BB0007920636F72727570746564000149182042
:100BC000ABBEFEE72600020070B505460C460A20C3
:100BD00000E06D1C00F011F835B128780028F8D13C
:100BE00002E0641C00F009F814B120780028F8D164
:100BF000BDE870400A20AFF3008008B569468DF863
:100C000000000320ABBE08BD10B500224FF4A07158
:100C1000114800F039F801210F4800F02CF80128A4
:100C200018D1002280210D4807F0FAFC0022022191
:100C30000B4807F0F5FC232011F058FF012280211A
:100C4000064807F0EDFC0120064908700121024822
:100C500000F00AF810BD0000002401400008014027
:100C6000000C0140C6010020CA43026070470146E3
:100C7000C86C80B270470246002013680B400BB16D
:100C8000012000E00020704710B50023CBB21AB15C
:100C900044681C43446002E044689C43446010BDC7
:100CA000002800DC4042704730B503460C46002166
:100CB00008E001EB41001E4D15F8200000B903E0EB
:100CC000481CC1B20A29F4DB00BF0A292DDA1948F1
:100CD000006870B901EB4100154D05EB8000154D22
:100CE000286001EB4100124D05EB8000124D286099
:100CF0000EE001EB41000E4D05EB80000E4D2D681E
:100D0000A86001EB41000A4D05EB80000A4D286008
:100D10000948006803700848006844700648006885
:100D200042600020044D2D68A860002030BD000006
:100D300094720020E8010020EC0100202DE9FC4124
:100D400004460D46002000900190002604EB84002C
:100D500000EBC400FA4901EB80004069C0F3C020F9
:100D6000A0B99DB104EB840000EBC40001EB80004E
:100D70004069C0F3401048B904EB840000EBC400A4
:100D800001EB80004069C0F3004008B1BDE8FC8180
:100D900004EB840000EBC400E94901EB80008069AA
:100DA00000287CD104EB8400E64901EB802005EBB0
:100DB000850100EB8100807900F00F00062829D022
:100DC00004EB8400DF4901EB802005EB850100EB9B
:100DD0008100807900F00F0007281BD004EB84000D
:100DE000D84901EB802005EB850100EB810080797B
:100DF00000F00F0008280DD004EB8400D14901EB6E
:100E0000802005EB850100EB8100807900F00F0068
:100E1000092801D1012000E000208046B8F1000F30
:100E20000BD004EB840000EBC400C54901EB80004B
:100E3000406900F0010000286AD1C348007800280A
:100E400066D104EB8400BF4901EB802005EB8501EE
:100E500000EB8100007AC0F3400088B304EB84000B
:100E6000B84901EB802005EB850100EB810080791A
:100E700000F00F0068B104EB8400B24901EB802060
:100E800005EB850100EB8100807900F00F000D2853
:100E900006D104222946204601F0DAFA0FE016E0D6
:100EA000002004EB8401A74A02EB812105EB8502B7
:100EB00001EB82018871A54901EB0421485565E7E2
:100EC000FFE704222946204601F0C2FA5EE704EB60
:100ED000840000EBC4009A4901EB8000007BB0B1B4
:100EE00004EB8400974901EB802005EB850100EBC2
:100EF0008100807900F00F00052808D09248007822
:100F000030B908222946204601F0A2FA3EE7761CB5
:100F100004EB84008B4901EB802005EB850100EB9D
:100F20008100007AC0F3C000D8B104EB8400854989
:100F300001EB802005EB850100EB8100007A20F0B9
:100F4000080004EB84017F4A02EB812105EB850256
:100F500001EB8201087201222946204601F078FA4D
:100F600000E0761C022E12D104EB8400754901EBDF
:100F7000802005EB850100EB8100807900F00F00F7
:100F8000052804D080222946204601F061FA04EBAE
:100F9000840000EBC4006A4901EB80008069B0F571
:100FA000167F02D94FF4617718E04FF4967704EB7F
:100FB0008400644901EB802005EB850100EB810092
:100FC000007A20F00400001D04EB84015D4A02EB6E
:100FD000812105EB850201EB82010872012629E0DF
:100FE00004EB840000EBC400554901EB800018308D
:100FF00050F82600E0B104EB840000EBC40001EBE4
:101000008000183050F82600384404EB840101EBCE
:10101000C4014B4A02EB81018969411A04EB840047
:1010200000EBC40002EB8000183040F8261000E00E
:1010300002E0761C052ED3D300BF04EB840000EB46
:10104000C4003F4901EB80008761002687E004EB84
:10105000840000EBC4003A4901EB8000183050F8DE
:101060002670002F79D0022E32D104EB840035494E
:1010700001EB802005EB850100EB8100807900F019
:101080000F00042824DA04EB84012E4A02EB8121AC
:1010900005EB850201EB820148781EF039FAB8B100
:1010A00040F2DE60874203D3C8208DF8020055E08D
:1010B00007EBC70000EB071040F26F3101EBC007F0
:1010C0004800B7FBF0F7F8B28DF80200082645E0BB
:1010D000B7F5E17F05D2962F03D901200DF8060060
:1010E0003CE040F2EE20874206D2B7F5E17F03D91B
:1010F00002200DF8060031E040F21A40874207D284
:1011000040F2EE20874203D903200DF8060025E0C7
:1011100040F24650874207D240F21A40874203D934
:1011200004200DF8060019E040F27260874210D2E8
:1011300040F2465087420CD905200DF806000DE01C
:1011400094770020FC77002060020020FC9F0020A4
:1011500003E000200DF8060000E003E0761C052EF9
:10116000FFF475AF00BF04EB8400FE4901EB802063
:1011700005EB850100EB8100807900F00F00052868
:1011800077D1802D03DA9DF80000012805D07F2D4E
:101190000EDD9DF8000003280AD19DF8030000EB46
:1011A0004000F14901EB40009DF80210465C11E05F
:1011B0009DF80000032802D14FF0000801E04FF035
:1011C00001089DF8040000EB8000E84908449DF800
:1011D0000310465C04EB8400E24901EB802005EB40
:1011E000850100EB81004078B04277D0E04800787C
:1011F000F0B304EB8400DB4901EB802005EB8501B3
:1012000000EB810040783D280BD004EB8400D549E9
:1012100001EB802005EB850100EB810040783E2842
:1012200005D1482E03D1B8F1000F00D0AEE515204E
:1012300004EB8401CB4A02EB812105EB850201EB33
:1012400082018871FF2E23D104EB8400C54901EB94
:10125000802005EB850110F8210001282CD000200A
:1012600004EB8401BF4A02EB812105EB850201E01A
:1012700023E0AAE001F82200FF2004EB8401B94A30
:1012800002EB812105EB850201EB8201487013E03E
:10129000012004EB8401B34A02EB812105EB8502B6
:1012A00001F8220004EB8401AE4A02EB812105EB38
:1012B000850201EB82014E7068E5FF2E0FD12946B1
:1012C000204616F0DFFB04EB8401A64A02EB8121E5
:1012D00005EB850201EB8201887157E54BE004EBD9
:1012E0008401A04A02EB812105EB850201EB82011A
:1012F00048781EF00DF918B9F0B21EF009F928B1BE
:1013000002222946204601F0A3F83FE504EB8400C1
:10131000944901EB802005EB850100EB81004078CA
:101320003D280BD004EB84008E4901EB802005EBB7
:10133000850100EB810040783E2819D1482E11D15B
:10134000B8F1000F0ED02946204616F09BFB04EBA7
:101350008401844A02EB812105EB850201EB8201C5
:10136000887105E002222946204601F071F80DE55A
:101370004FF0000810E07E48007868B92946204602
:1013800016F080FB04EB8401764A02EB812105EB29
:10139000850201EB8201887175480078A8B1FF2DA4
:1013A00012D104EB840000EBC400724901EB800011
:1013B000406920F00400001D04EB840101EBC4012E
:1013C0006C4A02EB81014861E0E404EB8401654A68
:1013D00002EB812105EB850201EB820148781EF0CA
:1013E00097F838B19DF80120AA232946204601F03C
:1013F00075FB6AE204EB84005A4901EB802005EB9F
:10140000850100EB8100807900F00F000E287DD26D
:10141000DFE800F0FC7C7C7C7CFBFAF9F8077C7C44
:101420007CF79DF80200052807D15348005D01288C
:101430000BD05148005D022807D09DF8020001281A
:101440007ED14D48005D03287AD104EB84004549E4
:1014500001EB802005EB850100EB8100407A20F054
:10146000800004EB84013F4A02EB812105EB8502F9
:1014700001EB8201487204EB84003A4901EB8020C1
:1014800005EB850100EB8100807A20F0800004EB01
:101490008401344A02EB812105EB850201EB8201D4
:1014A00088723548005D012837D104EB84002D494E
:1014B00001EB802005EB850100EB8100407B40F0D3
:1014C000200004EB8401274A02EB812105EB850211
:1014D00001EB8201487304EB8400224901EB802078
:1014E00005EB850100EB8100407B20F0400004EB20
:1014F00084011C4A02EB812105EB850201EB82018C
:101500004873E6201D498870084600E0D0E1C570A8
:10151000002008714871887164E01748005D032855
:1015200052D104EB84000F4901EB802005EB8501CB
:1015300000EB8100407B20F0200004EB840100E000
:101540008FE0084A02EB812105EB850201EB820165
:10155000487304EB8400034901EB802005EB85010F
:101560000EE00000FC770020AA290208CE2902081C
:101570006002002094770020480200202002002012
:1015800000EB8100407B40F0400004EB8401D04A36
:1015900002EB812105EB850201EB8201487304EB2C
:1015A000840000EBC400CB4901EB8000406900F0EF
:1015B0000100B8B9E620C84988700846C570002007
:1015C0000871487188710DE0C448005D022809D196
:1015D000E620C14988700846C5700020087148712E
:1015E000887100BFBE4850F82400B0F1FF3F29D1F8
:1015F00004EB840000EBC400B64901EB80004069B5
:1016000005E058E139E11DE101E152E152E120F04C
:10161000020004EB840101EBC401AE4A02EB81013C
:10162000486104EB840000EBC400114601EB80002C
:10163000406920F0010004EB840101EBC40102EBDE
:10164000810148612946204616F01CFA04EB84010A
:101650009F4A02EB812105EB850201EB8201887133
:10166000D4E02946204616F00DFA04EB8401984A8E
:1016700002EB812105EB850201EB8201887104EB0D
:101680008400934901EB802005EB850100EB81008C
:10169000807A00F08000E0B304EB84008C4901EB19
:1016A000802005EB850100EB8100407A20F080006E
:1016B00004EB8401864A02EB812105EB850201EBF4
:1016C0008201487204EB8400814901EB802005EB24
:1016D000850100EB8100807A20F0800004EB84011A
:1016E0007B4A02EB812105EB850201EB82018872C6
:1016F00004EB840000EBC400764901EB80004069F4
:10170000774850F82400B0F1FF3F23D104EB840068
:1017100000E020E000EBC40001EB8000406920F015
:10172000020004EB840101EBC4016A4A02EB81016F
:10173000486104EB840000EBC400114601EB80001B
:10174000406920F0010004EB840101EBC40102EBCD
:10175000810148616AE504EB84005D4901EB80206A
:1017600005EB850100EB8100407A20F0800004EB5E
:101770008401574A02EB812105EB850201EB8201CE
:10178000487204EB8400524901EB802005EB85018F
:1017900000EB8100807A40F0800004EB84014C4A29
:1017A00002EB812105EB850201EB820188724B4837
:1017B000005D01280BD1362004EB8401444A02EB82
:1017C000812105EB850201EB820188711EE043480F
:1017D000005D03280BD1372004EB84013C4A02EB67
:1017E000812105EB850201EB820188710EE03B4807
:1017F000005D02280AD1382004EB8401344A02EB50
:10180000812105EB850201EB820188710EE5012043
:101810003249085504EB84002D4901EB802005EB8B
:10182000850100EB8100807916280ADC192004EB81
:101830008401274A02EB812105EB850201EB82013D
:101840008871F3E403202549085504EB84002049FE
:1018500001EB802005EB850100EB810080791728E2
:101860000ADC192004EB8401194A02EB812105EB03
:10187000850201EB82018871D8E4022017490855DE
:1018800004EB8400124901EB802005EB850100EB9D
:101890008100807918280ADC192004EB84010C4AA5
:1018A00002EB812105EB850201EB82018871BDE429
:1018B00000BF00BF00BF9DF802309DF801202946FF
:1018C000204601F00BF900BF00BF00BFAEE40000EE
:1018D000FC7700209477002020020020480200209E
:1018E0005802002010B500200DF016F901200DF06F
:1018F00013F910BD30B50246674B1A700020C7E0DF
:10190000FF2198E0002300EB8004644D05EB842464
:1019100001EB810504F82530FF2300EB80045F4DC7
:1019200005EB842401EB810504EB8504637000EB77
:1019300080035A4C04EB832301EB810403EB840303
:101940001B7A23F0010300EB8004544D05EB842443
:1019500001EB810504EB8504237200EB80034F4CFF
:1019600004EB832301EB810403EB84031B7A23F054
:10197000040300EB8004494D05EB842401EB810551
:1019800004EB8504237200EB8003444C04EB8323B7
:1019900001EB810403EB84031B7A23F0080300EBC3
:1019A00080043E4D05EB842401EB810504EB8504A6
:1019B0002372052300EB8004384D05EB842401EBF2
:1019C000810504EB8504A37100EB8003334D05EB27
:1019D00083254B1E03EB830305EB8303D97100239F
:1019E00000EB80042D4D05EB842401EB810504EB15
:1019F0008504E37200EB8004284D05EB842401EBA1
:101A0000810504EB8504237300EB8003234C04EB76
:101A1000832301EB810403EB84035B7B03F0F3037B
:101A200000EB80041D4D05EB842401EB810504EBE4
:101A300085046373491E00297FF464AF012300EB22
:101A40008004164D05EB842441F2EC352C44E371FF
:101A5000052300EB8004114D05EB8424A3710023C2
:101A600000EB800404EBC0040D4D05EB84042372ED
:101A7000FF2300EB800404EBC00405EB8404A37097
:101A800000EB800404EBC00405EB84046370401C8D
:101A90000228FFF435AF30BD54020020FC7700204F
:101AA0009477002010B501200EF040FC00200EF0CD
:101AB0003DFC10BD08B50146002000900348009091
:101AC0000098084400900098008808BD006C004011
:101AD00008B500220092044A0092009A0244009243
:101AE000009A116008BD0000006C004000BFFEE7D6
:101AF0000146CAB20B1243EA022070477CB5214C62
:101B00000546216831F8220F4A8D10440880488824
:101B1000CA8D10444880284608F028F92168498C6D
:101B2000ADF800104618284609F06AFE3044401E01
:101B3000ADF8040008F08AF92168898CADF802102C
:101B40000844401EADF80600684615F003F904E0AD
:101B5000284605F033FF15F0BFF80028F8D10A2D0C
:101B600004D0BDF804002168401C4884206830F887
:101B7000221F428D891A01804188C28D891A4180B5
:101B80007CBD0000D004002008B50020009022E1B8
:101B90009748008800F00F009649087008460078C2
:101BA00000287CD194480068944908800846008841
:101BB00000F03000924908809048008800F44050BE
:101BC0008E4908808C4909684BF6BF7201EA020011
:101BD00080F4005080F0200040F4004141F080018A
:101BE000854A11608248008800F0100090BB1046C2
:101BF000006848F60F710840114608600AF04EFE72
:101C00007D4909684BF6BF7201EA02007B490988E9
:101C100001F4805109B180F480507849098801F4B9
:101C2000005109B180F400507549098801F0100194
:101C300009B180F010007249098801F0200109B152
:101C400080F0200081B241F4004141F080016A4AF5
:101C5000116008BDFFE76848006880B20090BDF8D9
:101C6000000000F40060B0B363480068C0F30E00E9
:101C700048F68F710840604908600FF025FE5E4904
:101C800009684BF6BF7201EA02005C49098801F459
:101C9000805109B180F480505849098800E056E02D
:101CA00001F4005109B180F400505549098801F050
:101CB000100109B180F010005149098801F020019C
:101CC00009B180F0200081B241F4004141F080016F
:101CD000494A1160BDE7FFE7BDF8000000F400408D
:101CE000002878D044480068C0F30E0048F68F7191
:101CF0000840414908600DF0D9FC3F4909684BF69E
:101D0000BF7201EA02003D49098801F4805109B11E
:101D100080F480503949098801F4005109B180F4F8
:101D200000503749098801F0100109B180F0100016
:101D30003349098801F0200109B180F0200081B207
:101D400041F4004141F080012B4A116081E72948AC
:101D500000782C4901EB8000D0F8000C80B2009094
:101D6000BDF8000000F40040C0B12248007801EB4B
:101D70008000D0F8000CC0F30E0048F68F710840C8
:101D80001C4909781F4A02EB8101C1F8000C19496E
:101D90000978491E1C4A52F821008047BDF800000E
:101DA00000F08000B8B113480078164901EB8000BC
:101DB000D0F8000C48F60F7108400E490978114A16
:101DC00002EB8101C1F8000C0A490978491E0F4A4B
:101DD00052F82100804708484430006880B2044926
:101DE000088000F4004000287FF4D2AE00BF30E746
:101DF000B400002064000020005C00407800002057
:101E00007A00002000500040DC000020C0000020CC
:101E100010B58AB0002404A901201EF037FC07A9E0
:101E200002201EF033FC00BF06E004A8005D303045
:101E300001A90855601CC4B20C2CF6DBFF2008F089
:101E40006FFD6FF07F4008F067FD094808F072FDF4
:101E500064225A2101A807F067FD064808F06AFDD0
:101E60009622782104A007F05FFD0AB010BD0000A3
:101E700030AE020858400208D5FDD4DABAF4BDD01D
:101E80000000000030B589B00546002405E0285D5B
:101E9000303001A90855601CC4B20B2CF7DB01AA35
:101EA0000AA104A8FEF734FA04A9112020F06AFC64
:101EB00001224021084806F0B3FB00224FF40051F4
:101EC000064806F0ADFB09B030BD00004154442582
:101ED000733B0D0A00000000001801400010014093
:101EE0000B4A02EB8001D1F8001C01F4804171B172
:101EF00002EB8001D1F8001C48F68F7211404CF2C1
:101F000080021143024B03EB8002C2F8001C7047B1
:101F1000005000400B4A02EB8001D1F8001C01F098
:101F2000400171B102EB8001D1F8001C48F68F72BC
:101F3000114048F2C0021143024B03EB8002C2F889
:101F4000001C704700500040084A02EB8001D1F8A5
:101F5000001C48F68F62114048F280021143034B87
:101F600003EB8002C2F8001C7047000000500040E4
:101F700004490860091F096841F00101014A121F64
:101F800011607047087400402DE9F0472848006848
:101F900000F110052E8826480068077AD6B9042F6C
:101FA00018D12448007801280FD100212248006868
:101FB00080B2801C214A42F810103020204908804D
:101FC00000BF00201B49087003E0072710201C49B0
:101FD000088027E0AC88A64201D8042000E0022057
:101FE0000746B44200D93446A0B2A9688847804663
:101FF000002009F077FE8146A2B24946404611F022
:10200000D7FDA1B200200FF07BF92888001B2880A3
:102010006888204468803020094908800002094906
:10202000088000BF024909680F72BDE8F087000010
:102030006800002062000020505C0040006000400A
:102040007A000020780000202DE9F041284800683F
:1020500000F110042688A068C0B1BEB1A588B542C1
:1020600000D93546A8B2A168884707462088401B9A
:102070002080608828446080002009F011FE80469E
:10208000AAB2414638460DF039FB00BF208850B156
:102090004FF4405017490880002108460FF030F9EE
:1020A0003020154908802088A188884204DB03205D
:1020B0000F490968087218E02088002804DD05200F
:1020C0000B490968087210E0208870B90620084999
:1020D0000968087200210948006880B2801C084A1B
:1020E00042F81010302004490880BDE8F08100005B
:1020F00068000020780000207A000020505C00403A
:10210000006000402DE9F84F9B48006845780027A3
:10211000BA46062D1BD198480068007800F07F0071
:10212000002813D1944909688878012803D193497C
:102130000968CF690AE0022803D1904909680F6A4B
:1021400004E0032802D18D4909684F6A94E0002D0C
:1021500064D189480068408800285FD186480068BB
:10216000C08802285AD1844800680079002855D1D7
:1021700081480068007800F07F0028B97E48006838
:10218000808808B97E4F77E07B480068007800F0CF
:102190007F00012810D17849096848797749096892
:1021A0008A6900219047002866D173480068807AC8
:1021B000002861D0724F5FE06F480068007800F03F
:1021C0007F00022858D16C480068407900F00F0663
:1021D00069480068407900F07009674800684079F4
:1021E00000F0800038B1674901EB8600D0F8000CA0
:1021F00000F0300806E0634901EB8600D0F8000CDF
:1022000000F4405860480078B04235D9B9F1000F69
:1022100032D1B8F1000F2FD0594F2DE0082D07D142
:1022200055480068007800F07F0028BB574F23E036
:102230000A2D21D150480068007800F07F00012865
:102240001AD14D480068807AB0B14B480068408888
:1022500090B949480068007970B947480068C0885B
:10226000012809D1444909684879444909688A69BB
:102270000021904700B9464F57B13F480068A0F889
:1022800012A03D48006887610020B84700240FE095
:10229000394A12685078394A1268116988470446E9
:1022A000032C05D10920344909680872BDE8F88F6C
:1022B00031480068008A4FF6FF71884204D1092036
:1022C0002D4909680872F1E7022C03D02A480068FA
:1022D000008A20B90820284909680872E6E72648DC
:1022E0000068007800F08000E0B323480068C088F0
:1022F000009021480068008A0099884204D91E494C
:1023000000980968088223E01B480068008A1A497F
:102310000968C98888421BDA17480068008A17498B
:10232000096891F82C10884203DA002019490870D6
:102330000EE011480068008A1049096891F82C10D5
:1023400090FBF1F201FB120010B901201149087055
:102350000A48006890F82C10074800688182FFF74F
:1023600013FE07E0FFE70320034909680872000332
:102370000949088000BF99E7680000206C00002030
:10238000411E01080050004004010020C51D010845
:10239000151E0108620000207800002030B50A46B2
:1023A0000221322303703023437013780A2493FBF5
:1023B000F4F3DBB243F030050C46491C05551378A5
:1023C0000A2493FBF4F504FB1533DBB243F030052C
:1023D0000C46491C05552D250C46491C05555378BE
:1023E00003F00F030A2493FBF4F3DBB243F0300550
:1023F0000C46491C0555537803F00F030A2493FB40
:10240000F4F504FB1533DBB243F030050C46491CF0
:1024100005552D250C46491C055593780A2493FB38
:10242000F4F3DBB243F030050B464C1CE1B2C5546B
:1024300093780A2493FBF4F504FB1533DBB243F0E5
:1024400030050B464C1CE1B2C5540023435430BD4B
:102450002DE9F04105460C461646FC48007808B1C7
:10246000BDE8F081042E7DD105EB8500F84901EB34
:10247000802004EB840100EB8100C07A00F00400AE
:10248000002870D005EB8500F14901EB802004EBBA
:10249000840100EB8100007B00F0040000B1DFE765
:1024A00000BFEC48076800BF05EB8500E84901EB79
:1024B000802004EB840100EB81000069381AB0F53C
:1024C000FA5F7CD90220E4494870E620887008460B
:1024D000C470002008714871887108460CF0CCFE69
:1024E00005EB8500DA4901EB802004EB840100EB69
:1024F0008100007B40F0040005EB8501D44A02EB2B
:10250000812104EB840201EB8201087305EB850055
:10251000CF4901EB802004EB840100EB8100C07AFD
:1025200020F0100005EB8501C94A02EB812104EB84
:10253000840201EB8201C87205EB8500C44901EBFE
:10254000802004EB840100EB8100007B20F0100070
:1025500005EB8501BE4A02EB812104EB840201EB0D
:10256000820101E03FE018E0087305EB8500B849FF
:1025700001EB802004EB840100EB8100007A20F065
:102580001000103005EB8501B14A02EB812104EB0C
:10259000840201EB8201087262E705EB8500AC4919
:1025A00001EB802004EB840100EB8100C07A40F055
:1025B000040005EB8501A64A02EB812100E011E051
:1025C00004EB840201EB8201C87200BFA1480068DD
:1025D00005EB85019E4A02EB812104EB840201EBAD
:1025E000820108613CE705EB8500994901EB8020F9
:1025F00004EB840100EB8100C07A00F00400B8B362
:1026000005EB8500924901EB802004EB840100EB8F
:102610008100007B00F0040050BB05EB85008C4975
:1026200001EB802004EB840100EB8100C07A20F0F4
:10263000040005EB8501864A02EB812104EB84024C
:1026400001EB8201C872002005EB8501804A02EB94
:10265000812104EB840201EB8201C87305EB850143
:102660007B4A02EB812104EB840201EB82010861C9
:1026700005EB8500764901EB802004EB840100EB3B
:102680008100C07A304000287DD005EB850070497C
:1026900001EB802004EB840100EB8100007B3040E3
:1026A000002871D005EB8500694901EB802004EB1F
:1026B000840100EB8100007B00F0040000287CD046
:1026C00005EB8500624901EB802004EB840100EBFF
:1026D0008100C07A00F0100000286FD005EB850063
:1026E0005B4901EB802004EB840100EB8100007B5F
:1026F00000F01000B0B105EB8500554901EB8020DA
:1027000004EB840100EB8100007A20F0100005EB5F
:1027100085014F4A02EB812104EB840201EB820127
:1027200008729DE605EB8500494901EB802004EB2A
:10273000840100EB8100C07B401C05EB8501444A0D
:1027400002EB812104EB840201EB8201C87305EBEB
:1027500085003F4901EB802004EB840100EB810000
:10276000C07B022829DB05EB8500394901EB80207D
:1027700004EB840100EB8100007B40F0040005EBDA
:102780008501334A01E077E18AE002EB812104EB25
:10279000840201EB82010873E6202F498870084605
:1027A000C470002008714871887105EB85002849C4
:1027B00001EB802004EB840101E070E04EE000EBCF
:1027C0008100C07A20F0040005EB8501204A02EB6D
:1027D000812104EB840201EB8201C87205EB8500C4
:1027E0001B4901EB802004EB840100EB8100007B9E
:1027F00020F0040005EB8501154A02EB812104EB72
:10280000840201EB82010873002005EB8501104A68
:1028100002EB812104EB840201EB8201C87305EB1A
:1028200085000B4901EB802004EB840100EB810063
:10283000007A20F0100005EB8501054A02EB8121AA
:1028400004EB840201EB8201087228E060020020A0
:10285000FC770020A40100202002002005EB850069
:102860009C4901EB802004EB840100EB8100C07ADD
:1028700040F0100005EB8501964A02EB812104EB44
:10288000840201EB8201C872002005EB8501914AA8
:1028900002EB812104EB840201EB8201C873DFE5C6
:1028A00005EB85008B4901EB802004EB840100EBF4
:1028B0008100C07B02287DDB802E52D105EB850094
:1028C000844901EB802004EB840100EB8100007B54
:1028D00000F00400C8B303207F494870E6208870E8
:1028E0000846C470002008714871887108460CF0D1
:1028F000C3FC05EB8500774901EB802004EB8401E4
:1029000000EB8100007B20F0040005EB8501714A9B
:1029100002EB812104EB840201EB8201087305EBD9
:1029200085006C4901EB802004EB840100EB810001
:10293000007A20F0100005EB8501664A02EB812148
:1029400004EB840201EB82010872802005EB850113
:10295000604A02EB812104EB840201EB8201C87220
:1029600068E0012E15D105EB85005A4901EB802066
:1029700004EB840100EB8100007B304305EB850113
:10298000544A02EB812104EB840201EB82010873BB
:1029900050E0022E2ED1E6204F4988700846C470C0
:1029A000002008714871887105EB8500494901EBE9
:1029B000802000E04AE004EB840100EB8100007B12
:1029C000304305EB8501434A02EB812104EB84028D
:1029D00001EB820108732146284615F053F805EBF8
:1029E00085013C4A02EB812104EB840201EB820168
:1029F00088711FE0082E1DD1E620374988700846EF
:102A0000C470002008714871887105EB8500314958
:102A100001EB802004EB840100EB8100007B30435C
:102A200005EB85012B4A02EB812104EB840201EBCB
:102A300082010873002005EB8501264A02EB812103
:102A400004EB840201EB8201C87309E505EB850004
:102A5000204901EB802004EB840100EB8100C07B66
:102A6000401C05EB85011B4A02EB812104EB84022B
:102A700001EB8201C8732AE0002005EB8501154AAD
:102A800002EB812104EB840201EB8201C87205EBA9
:102A90008500104901EB802004EB840100EB8100EC
:102AA000C07A304305EB85010A4A02EB812104EB31
:102AB000840201EB8201C872002005EB8501054A02
:102AC00002EB812104EB840201EB8201C87300BF99
:102AD000C6E40000FC770020200200202DE9F0472A
:102AE00005460C4617469946FE48007808B1BDE8F1
:102AF000F08707B9FBE7052F00DDF8E7B9F1AA0F6A
:102B000003D0B9F1050F00DDF1E7B9F1AA0F7CD1CF
:102B1000012F7BD1BA4605EB8500F34901EB8020FC
:102B200004EB840100EB8100807A00F0070005EBE4
:102B30008501ED4A02EB812104EB840201EB820165
:102B4000887205EB8500E84901EB802004EB8401E5
:102B500000EB8100807A00287DD005EB8500E249FA
:102B600001EB802004EB840100EB8100407B00F04E
:102B7000010068B105EB8500DB4901EB802004EB27
:102B8000840100EB8100807A00F0020000B9AEE71A
:102B900005EB8500D44901EB802004EB840100EBB8
:102BA0008100807900F0F00000287DD005EB8500E1
:102BB000CD4901EB802004EB840100EB8100807B98
:102BC000401C05EB8501C84A02EB812104EB84021D
:102BD00001EB8201887305EB8500C34901EB80207E
:102BE00004EB840100EB8100807B02287EDD05EB95
:102BF0008500BD4901EB802004EB840100EB8100DE
:102C0000807A00F0010038B301E072E20EE105EBDA
:102C10008500B54901EB802004EB840100EB8100C5
:102C2000407B00F00100B8B905EB8500AE4901EB2F
:102C3000802004EB840100EB8100407B40F0010028
:102C400005EB8501A84A02EB812104EB840201EB2C
:102C50008201487301E0CFE031E005EB8500A24935
:102C600001EB802004EB840100EB810040789F4958
:102C7000085C01281CD005EB85009B4901EB8020F6
:102C800004EB840100EB810040789849085C78B13E
:102C900005EB8500944901EB802004EB840100EBF7
:102CA00081004078914900E085E0085C112806D158
:102CB0008F48C47000208E4908714871887105EBF7
:102CC0008500894901EB802004EB840100EB810041
:102CD000807A00F0020000B305EB8500824901EB29
:102CE000802004EB840100EB810000E0D1E0407B18
:102CF00040F0020005EB85017B4A02EB812104EBE9
:102D0000840201EB82014873E62079498870084605
:102D1000C470002008714871887105EB8500724904
:102D200001EB802004EB840100EB8100407A00F08D
:102D3000010005EB85016C4A02EB812104EB840262
:102D400001EB8201487205EB8500674901EB8020A9
:102D500004EB840100EB8100807A00F0010005EBB8
:102D60008501614A02EB812104EB840201EB8201BF
:102D70008872002005EB85015B4A02EB812104EBA0
:102D8000840201EB8201887305EB8500564901EB53
:102D9000802004EB840100EB8100807900F00F00BB
:102DA00005EB8501504A02EB812104EB840201EB23
:102DB000820188719BE605EB85004B4901EB802081
:102DC00004EB840100EB81008079303005EB850154
:102DD000454A02EB812104EB840201EB82018871F8
:102DE000012005EB8501404A02EB812104EB8402BE
:102DF00001EB820188734CE0002005EB85013A4A23
:102E000002EB812104EB840201EB8201487221462E
:102E1000284614F037FE05EB8501334A02EB812189
:102E200004EB840201EB8201887132E0032F27D189
:102E300005EB85002C4901EB802004EB840100EBBD
:102E40008100407B00F00100B0B105EB8500264910
:102E500001EB802004EB840100EB8100807900F01D
:102E60000F0005EB8501204A02EB812104EB84026F
:102E700001EB820188713AE64FF0000A012608E072
:102E80004FF0000A042F01D1022602E0052F00D1E5
:102E90000426BAF1000F74D105EB8500124901EB4D
:102EA000802004EB840100EB8100807A304000B187
:102EB0001DE605EB85000C4901EB802004EB840145
:102EC00000EB8100407A304000287AD0012E4CD1AE
:102ED00005EB8500044901EB802004EB840100EB45
:102EE000810007E060020020FC7700208A280208A9
:102EF000200200204078FE49085C01281AD005EB2A
:102F00008500FC4901EB802004EB840100EB81008B
:102F10004078F749085C68B105EB8500F54901EB9D
:102F2000802004EB840100EB81004078F049085CCC
:102F3000112802D1E620F0498870EF48C4700120C2
:102F4000ED494870002008714871887108460CF0FE
:102F500093F92A2005EB8501E64A02EB812104EB77
:102F6000840201EB8201887114E0022E0AD1E6206E
:102F7000E14988700846C470002008714871887162
:102F800008E0F5E3042E05D10320DB49087008466C
:102F90004570847005EB8500D64901EB802004EB79
:102FA000840100EB8100807A304305EB8501D14A32
:102FB00002EB812104EB840201EB82018872D7E3EA
:102FC000FFE7012E02D14FF0030801E04FF00308A4
:102FD00005EB8500C74901EB802004EB840100EB81
:102FE0008100807900F0F00008BB05EB8500C14945
:102FF00001EB802004EB840100EB8100807900EB81
:10300000081005EB8501BB4A02EB812104EB840229
:1030100001EB82018871012005EB8501B54A02EBC5
:10302000812104EB840201EB82018873C7E705EB81
:103030008500B04901EB802004EB840100EB8100A6
:10304000807B401C05EB8501AA4A02EB812104EB41
:10305000840201EB8201887305EB8500A54901EB31
:10306000802004EB840100EB8100817BA8F101004A
:103070008142A4DB05EB85009E4901EB802004EB37
:10308000840100EB8100407A304305EB8501994AC9
:1030900002EB812104EB840201EB8201487205EB13
:1030A0008500944901EB802004EB840100EB810052
:1030B000807900F00F0005EB85018E4A02EB81213B
:1030C00004EB840201EB82018871002005EB85018D
:1030D000884A02EB812104EB840201EB82018873B0
:1030E00005EB850000EBC500844901EB80004473CB
:1030F00065E7012F7ED1BA4605EB85007D4901EBDE
:10310000802004EB840100EB8100807A00F00F083E
:10311000B8F1000F6FD005EB8500764901EB8020F8
:1031200004EB840100EB8100407B00F0010088B3D8
:1031300005EB85006F4901EB802004EB840100EB77
:10314000810040783D2817D005EB8500694901EBE7
:10315000802004EB840100EB810040783E280BD0F6
:1031600005EB8500634901EB802004EB840100EB53
:10317000810040784B280ED105EB85005D4901EBBD
:10318000802004EB840100EB8100807A00F00E00C7
:1031900000B9ACE4FFE705EB8500564901EB802060
:1031A00004EB840100EB8100807900F0F00000283E
:1031B0007ED005EB85004F4901EB802004EB8401B4
:1031C00000EB8100807B00F00F000F2817DA05EB81
:1031D0008500484901EB802004EB840100EB81006D
:1031E000807B401C05EB8501424A02EB812104EB08
:1031F000840201E014E2CAE101EB8201887305EB6D
:1032000085003C4901EB802004EB840100EB810048
:10321000807B00F00F00022872DD05EB8500354948
:1032200001EB802004EB840100EB8100807A00F048
:103230000100F0B305EB85002E4901EB802004EB83
:10324000840100EB8100407B00F0010018B305EB26
:103250008500284901EB802004EB840100EB81000C
:1032600040783D286CD005EB8500224901EB802099
:1032700004EB840100EB810040783E2860D005EB30
:1032800085001C4901EB802004EB840100EB8100E8
:1032900040784B2854D005EB8500164901EB80207F
:1032A00004EB840100EB8100407B40F0010001E071
:1032B0001EE145E005EB85010E4A02EB812104EB9E
:1032C000840201EB8201487305EB8500094901EB9B
:1032D000802004EB840100EB810040780449085C05
:1032E000012824D005EB8500024901EB802008E08D
:1032F0008A280208FC770020200200209477002012
:103300008DE104EB840100EB81004078FE49085C0C
:1033100068B105EB8500FD4901EB802004EB8401D9
:1033200000EB81004078F849085C112808D1E620BC
:10333000F74988700846C470002008714871887188
:1033400005EB8500F14901EB802004EB840100EBE3
:103350008100807A00F00E0040B305EB8500EB4958
:1033600001EB802004EB840100EB8100407B40F006
:10337000020005EB8501E54A02EB812104EB8402A2
:1033800001EB82014873E620E14988700846C47069
:10339000002008714871887105EB8501DB4A02EB5A
:1033A000812104EB840201EB8201887205EB850028
:1033B000D64901EB802004EB840100EB8100807B87
:1033C00000F0F00005EB8501D04A02EB812104EB0F
:1033D000840201EB8201887305EB8500CB4901EB88
:1033E000802004EB840100EB810040784B2817D04B
:1033F00005EB8500C54901EB802004EB840100EB5F
:10340000810040783E280BD005EB8500BF4901EBD9
:10341000802004EB840100EB810040783D282CD112
:1034200005EB8500B94901EB802004EB840100EB3A
:103430008100407A00F0F10005EB8501B34A02EB10
:10344000812104EB840201EB8201487205EB8500C7
:10345000AE4901EB802004EB840100EB8100807A0F
:1034600000F0F10005EB8501A84A02EB812104EB95
:10347000840201EB820188722BE005EB8500A349F1
:1034800001EB802004EB840100EB8100407A00F026
:10349000F00005EB85019D4A02EB812104EB8402DB
:1034A00001EB8201487205EB8500984901EB802011
:1034B00004EB840100EB8100807A00F0F00005EB62
:1034C0008501924A02EB812104EB840201EB820127
:1034D00088722146284614F0D5FA05EB85018B4AFF
:1034E00002EB812104EB840201EB8201887161E42B
:1034F00005EB8500854901EB802004EB840100EB9E
:103500008100007AC0F3001000B153E405EB8500A0
:103510007E4901EB802004EB840100EB810080797F
:10352000303005EB8501794A02EB812104EB8402FE
:1035300001EB8201887105EB8500744901EB802065
:1035400004EB840100EB8100807B00F0F00005EBD0
:1035500085016E4A02EB812104EB840201EB8201BA
:10356000887305EB8500694901EB802004EB840139
:1035700000EB8100807B401C05EB8501634A02EB78
:10358000812104EB840201EB820188738BE005EB5F
:1035900085005E4901EB802004EB840100EB810093
:1035A000407A00F0F00005EB8501584A02EB8121DA
:1035B00004EB840201EB82014872B9F1010F72D170
:1035C00005EB8500514901EB802004EB840100EB01
:1035D0008100807900F0F00005EB85014B4A02EB99
:1035E000812104EB840201EB820188712146284687
:1035F00014F048FA05EB8501444A02EB812104EB03
:10360000840201EB82018979084405EB85013F4A78
:1036100002EB812104EB840201EB8201887142E01C
:10362000042F35D105EB8500384901EB802004EBF0
:10363000840100EB8100407B00F0010020B305EB2A
:103640008500324901EB802004EB840100EB81000E
:1036500040783D2817D005EB85002C4901EB8020F0
:1036600004EB840100EB810040783E280BD005EB91
:103670008500264901EB802004EB840100EB8100EA
:1036800040784B2800D113E44FF0000A01260AE0ED
:103690004FF0000A022F01D1082604E0032F01D1C8
:1036A000042600E00226BAF1000F7DD105EB85006B
:1036B000164901EB802004EB840100EB8100807A45
:1036C000304000B165E505EB8500104901EB802035
:1036D00004EB840100EB8100407A304000287AD06E
:1036E000012E46D105EB8500084901EB802004EB53
:1036F000840100EB810040780349085C012821D057
:1037000005EB8500014905E08A280208FC770020C6
:103710002002002001EB802004EB840100EB8100FB
:103720004078FE49085C68B105EB8500FC4901EB77
:10373000802004EB840100EB81004078F749085CAD
:10374000112802D1E620F7498870F648C47000209D
:10375000F4490871487188712A2005EB8501F04A07
:1037600002EB812104EB840201EB8201887192E07B
:10377000C2E3022E30D105EB8500E94901EB802040
:1037800004EB840100EB8100807A00F06E0008BB3E
:10379000E620E44988700846C4700020087148712A
:1037A000887105EB850000E049E1DD4901EB8020EF
:1037B00004EB840100EB8100007A20F00200801C01
:1037C00005EB8501D64A02EB812104EB840201EB73
:1037D000820108725FE074E0042E2DD105EB8500B4
:1037E000CF4901EB802004EB840100EB8100807A5B
:1037F00000F06E00F8B9E620CA4988700846C47027
:10380000002008714871887105EB8500C44901EBFF
:10381000802004EB840100EB8100007A20F002009C
:10382000801C05EB8501BE4A02EB812104EB84027A
:1038300001EB820108722EE0082E2CD105EB8500E9
:10384000B74901EB802004EB840100EB8100807A12
:1038500000F06E00F8B9E620B24988700846C470DE
:10386000002008714871887105EB8500AC4901EBB7
:10387000802004EB840100EB8100007A20F002003C
:10388000801C05EB8501A64A02EB812104EB840232
:1038900001EB8201087205EB8500A14901EB802054
:1038A00004EB840100EB8100807A304305EB850155
:1038B0009B4A02EB812104EB840201EB82018872B6
:1038C000BDE0012E02D14FF0030801E04FF00308E4
:1038D00005EB8500924901EB802004EB840100EBAD
:1038E0008100807900F0F000F0BB05EB85008C4989
:1038F00001EB802004EB840100EB8100807900EB78
:10390000081005EB8501864A02EB812104EB840255
:1039100001EB8201887105EB8500814901EB802074
:1039200004EB840100EB8100807B00F0F00005EBEC
:1039300085017B4A02EB812104EB840201EB8201C9
:10394000887305EB8500764901EB802004EB840148
:1039500000EB8100807B401C05EB8501704A02EB87
:10396000812104EB840200E003E001EB8201887313
:1039700065E005EB85006A4901EB802004EB8401DA
:1039800000EB8100807B00F00F000F2814DA05EBBC
:103990008500634901EB802004EB840100EB81008A
:1039A000807B401C05EB85015D4A02EB812104EB25
:1039B000840201EB8201887305EB8500584901EB15
:1039C000802004EB840100EB8100807B00F00F017C
:1039D000A8F10100814232DB05EB8500504901EB83
:1039E000802004EB840100EB8100407A304305EB3A
:1039F00085014B4A02EB812104EB840201EB820139
:103A0000487205EB8500464901EB802004EB8401F8
:103A100000EB8100807900F00F0005EB8501404A42
:103A200002EB812104EB840201EB8201887105EB3A
:103A3000850000EBC5003C4901EB80004473B9F1FF
:103A4000010F73D14FF0010A05EB8500344901EBFA
:103A5000802004EB840100EB8100807A00F0700884
:103A6000B8F1000F7DD005EB85002D4901EB8020DA
:103A700004EB840100EB8100807900F0F000002865
:103A800071D005EB8500264901EB802004EB840111
:103A900000EB8100807B00F0F000F02814DA05EBE9
:103AA00085001F4901EB802004EB840100EB8100BD
:103AB000807B103005EB8501194A02EB812104EB74
:103AC000840201EB8201887305EB8500144901EB48
:103AD000802004EB840100EB8100807B0221B1EBAC
:103AE000101F7CDA05EB85000D4901EB802004EB0B
:103AF000840100EB8100807A00F0100090B305EBA8
:103B00008500074901EB802004EB840100EB810074
:103B1000407B40F0010005EB850108E08A2802089F
:103B2000FC77002020020020947700204FE1FA4A21
:103B300002EB812104EB840201EB8201487305EB67
:103B40008500F54901EB802004EB840100EB810046
:103B50004078F249085C01281ED005EB8500EE494B
:103B600002E0ECE021E0A9E001EB802004EB84011D
:103B700000EB81004078E949085C68B105EB8500FD
:103B8000E54901EB802004EB840100EB81004078E3
:103B9000E249085C112808D1E620E149887008460E
:103BA000C470002008714871887105EB8500DA49FE
:103BB00001EB802004EB840100EB8100807A00F0AF
:103BC000600050B305EB8500D34901EB802004EB86
:103BD000840100EB8100407B40F0020000E0F5E052
:103BE00005EB8501CC4A02EB812104EB840201EB59
:103BF00082014873E620CA4988700846C4700020D4
:103C000008714871887105EB8501C34A02EB812177
:103C100004EB840201EB8201887205EB8500BE494A
:103C200001EB802004EB840100EB8100807B00F03D
:103C30000F0005EB8501B84A02EB812104EB8402F9
:103C400001EB8201887305EB8500B34901EB80200D
:103C500004EB840100EB8100407A00F00F0005EBDB
:103C60008501AD4A02EB812104EB840201EB820164
:103C7000487205EB8500A84901EB802004EB840124
:103C800000EB8100807A00F00F0005EB8501A24A6D
:103C900002EB812104EB840201EB82018872214650
:103CA000284613F0EFFE05EB85019B4A02EB8121CC
:103CB00004EB840201EB8201887118E405EB8500B6
:103CC000954901EB802004EB840100EB81008079B1
:103CD000303005EB8501904A02EB812104EB840230
:103CE00001EB8201887105EB85008B4901EB802097
:103CF00004EB840100EB8100807B00F00F0005EBFA
:103D00008501854A02EB812104EB840201EB8201EB
:103D1000887305EB8500804901EB802004EB84016A
:103D200000EB8100807B103005EB85017A4A02EBC5
:103D3000812104EB840201EB820188735BE005EBD7
:103D40008500754901EB802004EB840100EB8100C4
:103D5000407A00F00F0005EB85016F4A02EB8121EC
:103D600004EB840201EB82014872012F43D105EB81
:103D70008500694901EB802004EB840100EB8100A0
:103D8000807900F0F00005EB8501634A02EB8121A8
:103D900004EB840201EB820188712146284613F06E
:103DA00071FE05EB85015C4A02EB812104EB840284
:103DB00001EB82018979084405EB8501564A02EB43
:103DC000812104EB840201EB8201887113E0B9F1D7
:103DD000040F03D14FF0000A10260CE04FF0000A48
:103DE000B9F1020F01D1402605E0B9F1030F01D16D
:103DF000202600E047E4BAF1000F7DD105EB8500F5
:103E0000454901EB802004EB840100EB8100807ABE
:103E1000304000B137E405EB85003F4901EB8020DD
:103E200004EB840100EB8100407A3040E8B3102EAF
:103E300040D105EB8500384901EB802004EB84017B
:103E400000EB810040783549085C01281AD005EB69
:103E50008500314901EB802004EB840100EB8100F7
:103E600040782E49085C68B105EB85002A4901EBD2
:103E7000802004EB840100EB810040782749085C36
:103E8000112802D1E620264988702548C4700020F8
:103E900023490871487188712A2005EB85011E4A63
:103EA00002EB812104EB840200E080E001EB82015F
:103EB000887166E0202E35D105EB8500164901EBAF
:103EC000802004EB840100EB8100807A00F06E001A
:103ED00008BBE620124988700846C47000200871AB
:103EE0004871887105EB85000B4901EB802004EBDC
:103EF000840100EB810000E016E1007A20F002006E
:103F0000801C05EB8501044A02EB812104EB84024D
:103F100001EB8201087234E0FC7700208A28020855
:103F200020020020402E2CD105EB85007F4901EBBB
:103F3000802004EB840100EB8100807A00F06E00A9
:103F4000F8B9E6207A4988700846C47000200871E4
:103F50004871887105EB8500744901EB802004EB02
:103F6000840100EB8100007A20F00200801C05EB48
:103F700085016E4A02EB812104EB840201EB820190
:103F8000087205EB8500694901EB802004EB840190
:103F900000EB8100807A304305EB8501634A02EB38
:103FA000812104EB840201EB82018872BCE0102EB7
:103FB00002D14FF0030801E04FF0030805EB850044
:103FC0005A4901EB802004EB840100EB81008079E9
:103FD00000F0F000F0BB05EB8500544901EB8020B8
:103FE00004EB840100EB8100807900EB081005EB05
:103FF00085014E4A02EB812104EB840201EB820130
:10400000887105EB8500494901EB802004EB8401B0
:1040100000EB8100807B00F00F0005EB8501434A37
:1040200002EB812104EB840201EB8201887305EB32
:1040300085003E4901EB802004EB840100EB810008
:10404000807B103005EB8501384A02EB812104EBBF
:10405000840200E003E001EB8201887364E005EB79
:104060008500324901EB802004EB840100EB8100E4
:10407000807B00F0F000F02814DA05EB85002B4976
:1040800001EB802004EB840100EB8100807B103089
:1040900005EB8501254A02EB812104EB840201EB4B
:1040A0008201887305EB8500204901EB802004EB39
:1040B000840100EB8100817BA8F10100B0EB111FAE
:1040C00032DC05EB8500194901EB802004EB84010B
:1040D00000EB8100407A304305EB8501134A02EB87
:1040E000812104EB840201EB8201487205EB85001B
:1040F0000E4901EB802004EB840100EB8100807904
:1041000000F00F0005EB8501084A02EB812104EB6A
:10411000840201EB8201887105EB850000EBC5008C
:10412000044901EB8000447300BFC6E5FC77002022
:104130002002002094770020704700001CB5022068
:104140001423DC22C821009032200BF016FB0190D2
:10415000019812F0FBF8194901980BF091FB4FF40C
:10416000FA7005F0EBFE154901980BF089FB144A33
:10417000002101980BF070FB124A012101980BF00D
:104180006BFB002101980BF0A3FB002407E0214604
:1041900001980BF0EFFB322005F0D0FE641C642C7C
:1041A000F5DD4FF4FA7005F0C9FE019812F06AF8D7
:1041B00005F000FA642005F0C1FE1CBD78C10208BC
:1041C00080808000D3D3D3002DE9F0410446F74826
:1041D0000470204607F026FE0546062D00D106266F
:1041E000F34850F82400401C10B9F248007840B160
:1041F00004EB840000EBC400EF4901EB8000C571C3
:1042000068E004EB840000EBC400EB4901EB8000A4
:10421000C679802E01DA802D03DC802E52DD802DC0
:1042200050DA04EB8400E54901EB802006EB8601BF
:1042300000EB8100007AC0F38000B8B304EB840087
:1042400000EBC400DC4901EB8000406920F0200055
:10425000203004EB840101EBC401D74A02EB810159
:10426000486104EB840000EBC400114601EB8000C0
:10427000406920F04000403004EB840101EBC401B0
:1042800002EB8101486104EB840000EBC40011469D
:1042900001EB80008571802E09DD8025002004EB74
:1042A000840101EBC40102EB8101C87112E0002519
:1042B000812004EB840101EBC401BF4A02EB8101C0
:1042C000C87107E004EB840000EBC400BA4901EBBD
:1042D0008000C57104EB840000EBC400B64901EB1B
:1042E0008000807A98B304EB840000EBC40001EBFB
:1042F0008000807AA8422AD104EB8400AF4901EB08
:10430000802005EB850100EB8100807900F0F00052
:1043100004EB8401A94A02EB812105EB850201EB44
:104320008201887104EB8400A44901EB802005EB35
:10433000850100EB810080790A3004EB84019F4AFB
:1043400002EB812105EB850201EB8201887104EB10
:10435000840000EBC400984901EB8000457204EB37
:10436000840000EBC40001EB8000406920F4806011
:1043700004EB840101EBC4018F4A02EB8101486127
:10438000002004EB840101EBC40102EB81010873FE
:104390009DB904EB840000EBC400114601EB8000E2
:1043A000406920F4006000F5006004EB840101EB3B
:1043B000C40102EB8101486111E004EB840000EBD1
:1043C000C4007D4901EB8000406920F4006004EBEB
:1043D000840101EBC401784A02EB810148612F4658
:1043E00004EB8400754901EB802005EB850100EBAF
:1043F0008100807900F00F0804EB840000EBC4001A
:104400006D4901EB80004069C0F3C03000287DD0C9
:1044100004EB840000EBC40001EB8000407C092821
:1044200008DA04EB840000EBC40001EB8000407C60
:1044300006286CDA04EB840000EBC4005E4901EB53
:104440008000007C801118BB04EB840000EBC400EA
:1044500001EB8000867B402004EB840101EBC4016A
:10446000554A02EB8101087404EB840000EBC400A0
:10447000114601EB8000406920F4004000F5004047
:1044800004EB840101EBC40102EB8101486143E0CC
:1044900004EB840000EBC400474901EB8000007C82
:1044A0000121B1EBA01F1BD104EB840000EBC40081
:1044B000414901EB8000C07B4030C6B204EB840070
:1044C00000EBC40001EB8000406920F4004004EBE5
:1044D000840101EBC401384A02EB810148611BE011
:1044E00004EB840000EBC400334901EB8000067C40
:1044F00004EB840000EBC40001EB8000406920F471
:10450000004004EB840101EBC40101E058E01BE032
:10451000294A02EB8101486137464FF00F0804EB4E
:10452000840000EBC400244901EB8000406920F4C2
:10453000803000F5803004EB840101EBC4011E4A99
:1045400002EB810148614FE004EB84001B4901EB61
:10455000802005EB850100EB8100807900F00F00E1
:10456000062841DB04EB8400144901EB802005EBB5
:10457000850100EB8100807900F00F00092833DC11
:1045800004EB84000D4901EB802005EB850100EB75
:104590008100807900F00F0004EB840101EBC4017D
:1045A000054A02EB810148741EE000004C02002025
:1045B000580200206002002094770020FC77002041
:1045C00004EB84002D4901EB802005EB850100EB15
:1045D0008100807900F00F0004EB840101EBC4013D
:1045E000274A02EB8101487400260CE0002104EB0D
:1045F000840000EBC400224A02EB8000183040F82F
:104600002610701CC6B2052EF0DB04EB84011B4A99
:1046100002EB812105EB850201EB820148781AF05B
:1046200077FF80B104EB8400144901EB802005EB97
:10463000850100EB8100807900F00F001149085CD2
:104640001149087010E004EB84000C4901EB802054
:1046500005EB850100EB8100807900F00F0109482E
:104660001030405C084908700748037842463946D4
:1046700020461BF0ABF9BDE8F0810000FC7700207C
:10468000947700208A290208620200202DE9F04177
:1046900080460C46B8F1080F7DD2DFE808F004230D
:1046A000578CBFDEFEFDBD48047000F087F96FF047
:1046B0007F4006F035F94FF47F0006F02DF9B84839
:1046C00006F038F9B5480078012805D13222782162
:1046D000B4A005F029F904E032227821B3A005F056
:1046E00023F958E1B3480088642190FBF1F0B14808
:1046F00000880A2190FBF1F090FBF1F201FB12001F
:10470000C6B2AC48008890FBF1F201FB1200C7B2C0
:1047100025466420684306EB860100EB41003844DF
:10472000A449088000F04AF96FF07F4006F0F8F8DD
:104730004FF47F0006F0F0F8994806F0FBF80123EB
:104740003222FA21284605F04FF824E199480088E2
:10475000642190FBF1F0C5B2964800880A2190FBD5
:10476000F1F090FBF1F09348008890FBF1F201FB2F
:104770001200C7B226466420684306EB860100EBB0
:10478000410038448B49088000F018F96FF07F40F1
:1047900006F0C6F800E0FDE04FF47F0006F0BCF83C
:1047A0007F4806F0C7F8012332224FF48371304668
:1047B00005F01AF8EFE07F480088642190FBF1F0E3
:1047C000C5B27C4800880A2190FBF1F090FBF1F221
:1047D00001FB1200C6B27748008890FBF1F0274633
:1047E0006420684306EB860100EB410038447149C0
:1047F000088000F0E3F86FF07F4006F091F84FF486
:104800007F0006F089F8664806F094F8012332220A
:104810004FF48971384604F0E7FFBCE05F4844700C
:1048200000F0CCF86FF07F4006F07AF84FF47F008C
:1048300006F072F85A4806F07DF85848407801288A
:1048400005D16422782157A005F06EF804E06422B7
:10485000782156A005F068F89DE05748008864214B
:1048600090FBF1F0544800880A2190FBF1F090FB96
:10487000F1F201FB1200C6B24F48008890FBF1F242
:1048800001FB1200C7B225466420684306EB86018F
:1048900000EB4100384401E049E015E0464908805A
:1048A00000F08CF86FF07F4006F03AF84FF47F008C
:1048B00006F032F83A4806F03DF801236422FA2166
:1048C000284604F091FF66E03B480088642190FB95
:1048D000F1F0C5B2384800880A2190FBF1F090FB56
:1048E000F1F03548008890FBF1F201FB1200C7B2ED
:1048F00026466420684306EB860100EB41003844FD
:104900002D49088000F05AF86FF07F4006F008F853
:104910004FF47F0006F000F8214806F00BF8012361
:1049200064224FF48371304604F05EFF33E0224886
:104930000088642190FBF1F0C5B21F4800880A216D
:1049400090FBF1F090FBF1F201FB1200C6B21A48A5
:10495000008890FBF1F027466420684306EB86014F
:1049600000EB410038441449088000F027F86FF04C
:104970007F4005F0D5FF4FF47F0005F0CDFF0848DC
:1049800005F0D8FF012364224FF48971384604F002
:104990002BFF00E000BF00BFBDE8F0817C040020D9
:1049A00058400208B4F2BFAA00000000B9D8B1D53F
:1049B00000000000780400207A04002010B50020D8
:1049C00005F0AEFF6FF07F4005F0A6FF174805F039
:1049D000B1FF17480078012805D13222782115A0AF
:1049E00004F0A2FF04E03222782114A004F09CFF1E
:1049F0000F484078012805D1642278210DA004F0E9
:104A000093FF04E0642278210CA004F08DFF0323BF
:104A10003222FA210B48008804F0E6FE03236422C8
:104A2000FA210948008804F0DFFE10BD5840020852
:104A30007C040020B4F2BFAA00000000B9D8B1D5B0
:104A400000000000780400207A04002000B589B03E
:104A5000142104A8FBF7EAFE04F0ACFD414805F080
:104A60005FFF2823DA000021084605F0EFF83E48F2
:104A700005F056FFF0234FF4A0722321002005F02B
:104A8000E5F86FF07F4005F04BFF364805F044FF36
:104A9000364805F04FFF06220A2135A004F044FFF6
:104AA000002005F03DFF304805F036FF2F4805F0A7
:104AB00041FF3C2246212EA004F036FF304805F08D
:104AC00039FF3C22DC212FA004F02EFF002005F04E
:104AD00027FF254805F020FF244805F02BFF78220A
:104AE000322129A004F020FF7822DC2128A004F044
:104AF0001BFF234805F01EFF78222D2126A004F07D
:104B000013FF7822672125A004F00EFF7822D72119
:104B100021A004F009FF78224FF486711FA004F051
:104B200003FF002005F0FCFE1D4805F003FF1D48B3
:104B3000007A1C49C9791B4A92791A4B5B79CDE9F5
:104B40000032CDE9021017480379026816A104A8C3
:104B5000FBF7DEFBD922962104A804F0E5FE09B09C
:104B600000BD000080808000D3D3D30058400208ED
:104B7000BBD6B8B4B3F6B3A7C9E8D6C300000000EB
:104B8000F48F02083F000000C8B7B6A8000000007C
:104B9000C8A1CFFB000000005B0000005D0000002A
:104BA00098690208FCA9002025642D253032642D67
:104BB0002530326420253032643A253032643A257B
:104BC0003032640070B50546002470E0A11CC8B204
:104BD00029461BF023FD37480078FF2802D100202A
:104BE000344908703348007800F0010058B332A00F
:104BF00004EB8401314A02EB810148602D48807842
:104C000000EB80002E4901EB400004EB840102EB35
:104C1000810188602748C078401E2A4951F8200049
:104C200004EB840102EB8101C8602248407800EB6C
:104C30004000254901EB8000401C04EB840102EB9D
:104C40008101086131E021A004EB84011B4A02EBE1
:104C5000810148600020174988700120C870002039
:104C600048700846807800EB8000154901EB400051
:104C700004EB840102EB810188600E48C078401E7D
:104C8000104951F8200004EB840102EB8101C86057
:104C90000848407800EB40000B4901EB8000401CC5
:104CA00004EB840102EB81010861601CC4B2102C8A
:104CB0008CDB70BD9402002059455300A0020020F7
:104CC000DC2D0208080400200E2E02084E4F0000C2
:104CD00070B5054611212F48FBF786FD002455E0ED
:104CE000A11CC8B229461BF099FC2B480078FF286C
:104CF00002D10020284908702748007800F00200FF
:104D000002282BD125A004EB8401254A02EB810166
:104D100048602148807800EB8000224901EB400088
:104D200004EB840102EB810188601B48C078401EBF
:104D30001D4951F8200004EB840102EB8101C86099
:104D40001548407800EB4000184901EB8000401CFA
:104D500004EB840102EB8101086109E001200D49A7
:104D6000085513A004EB84010D4A02EB8101486051
:104D70000948007800F00200022805D10548005DCE
:104D800040F0020003490855601CC4B2102CA7DB98
:104D900070BD00002EAA00202804002059455300B1
:104DA000A0020020DC2D0208080400200E2E0208BC
:104DB0004E4F000070B50546002470E0A11CC8B23B
:104DC00029461BF02BFC37480078FF2802D1002031
:104DD000344908703348007800F0010058B332A01D
:104DE00004EB8401314A02EB810148602D48807850
:104DF00000EB80002E4901EB400004EB840102EB44
:104E0000810188602748C078401E2A4951F8200057
:104E100004EB840102EB8101C8602248407800EB7A
:104E20004000254901EB8000401C04EB840102EBAB
:104E30008101086131E021A004EB84011B4A02EBEF
:104E4000810148600020174988700120C870002047
:104E500048700846807800EB8000154901EB40005F
:104E600004EB840102EB810188600E48C078401E8B
:104E7000104951F8200004EB840102EB8101C86065
:104E80000848407800EB40000B4901EB8000401CD3
:104E900004EB840102EB81010861601CC4B2102C98
:104EA0008CDB70BD4804002059455300A00200204F
:104EB000DC2D0208080400200E2E02084E4F0000D0
:104EC00010B50146002083E0421C02EB8203424AF7
:104ED00012F82320414B1A70421C02EB82033E4A17
:104EE00002EB83025278172A02D100223B4B5A7000
:104EF00000223A4B9A700122DA701A461278FF2A81
:104F000001D100221A70354A127802F001028AB3E8
:104F1000334A1278521C324B1A7032A200EB8003D3
:104F2000314C04EB83035A602C4A927802EB8202E4
:104F30002E4B03EB420200EB800304EB83039A60E9
:104F4000264AD278521E2A4B53F8222000EB8003C7
:104F500004EB8303DA60214A5278521E02EB4202CC
:104F6000244B03EB8202521C00EB800304EB83030F
:104F70001A612BE0FFE720A200EB80031A4C04EB40
:104F800083035A60154A927802EB8202174B03EBB7
:104F9000420200EB800304EB83039A600F4AD2784D
:104FA000521E134B53F8222000EB800304EB8303C3
:104FB000DA600A4A527802EB42020E4B03EB82029D
:104FC000521C00EB800304EB83031A61421CD0B235
:104FD0001028FFF679AF10BDFC8B00206C04002078
:104FE0007404002059455300A0020020DC2D020863
:104FF000080400200E2E02084E4F00000FB4F0B53A
:1050000087B0064615ACB0CC002F7DD1002005F04E
:1050100087FCA24805F080FCA14805F08BFC022328
:105020002AB221B2304604F0DFFB002005F078FC04
:105030009A4805F071FC9B4805F07CFC9DF8351002
:10504000994A02EB01102A4604F11E0104F06CFC9F
:105050009DF8350016282ED09DF835001528FAD079
:105060009DF835001428F6D09DF835001328F2D0AD
:105070009DF835000D287DD09DF835000E2879D09B
:105080009DF835000F2875D09DF83500112871D096
:105090009DF83700FD280FD1002005F041FC7F4826
:1050A00005F03AFC7F4805F045FC2A4604F11E0154
:1050B0007EA004F039FC5DE09DF83700FE280FD19A
:1050C000002005F02DFC754805F026FC754805F01C
:1050D00031FC2A4604F11E0177A004F025FC49E0CA
:1050E000002005F01DFC6D4805F016FC6D4805F02C
:1050F00021FC9DF835106C4A02EB01102A4604F1A0
:105100001E0104F011FC00E050E02A4604F1A50164
:105110006CA004F009FC9DF8381001EB81016A4A8B
:1051200002EB41002A4604F1B90104F0FDFB9DF8B1
:10513000361001EB4101654A02EB8101481C2A4609
:1051400004F1FA0104F0F0FB554805F0F3FB9DF87B
:10515000370003232AB204F1820109B204F044FBB0
:105160009DF83910481C01232AB204F1E60109B266
:1051700004F03AFB4A4805F0DDFB0DF13A0104A8C2
:10518000FDF70CF90DF13D0101A80DF0F1FE05F15F
:10519000280204F10F0104A804F0C6FB05F128025F
:1051A00004F1910101A804F0BFFB73E0002005F0B9
:1051B000B7FB6FF07F4005F0AFFB394805F0BAFB55
:1051C00002232AB221B2304604F00EFB002005F083
:1051D000A7FB6FF07F4005F09FFB324805F0AAFB6C
:1051E0002A4604F1370137A004F09EFB9DF83810E1
:1051F00001EB8101344A02EB41002A4604F15001DF
:1052000004F092FB9DF8361001EB41012F4A02EBAE
:105210008101481C2A4604F1D20104F085FB204894
:1052200005F088FB9DF8370002232AB204F11E0125
:1052300009B204F0D9FA9DF83800012809D19DF887
:10524000390001232AB204F1980109B204F0CCFA22
:1052500008E09DF8390001232AB204F1800109B267
:1052600004F0C2FA0DF13A0104A8FDF797F80DF128
:105270003D0101A80DF07CFE05F1280204F10F01AB
:1052800004A804F051FB05F1280204F1910101A8E2
:1052900004F04AFB07B0F0BC5DF814FBD3D3D30095
:1052A0003C7D0208584002086C2C0208CAE4C8EB96
:1052B000BBF0BEAF00000000CAD6B1A8BBF0BEAFC5
:1052C00000000000BAC50000DC2D02080E2E020806
:1052D0000FB4F0B587B0064615ACB0CC002F7DD129
:1052E000002005F01DFB6FF07F4005F015FB964890
:1052F00005F020FB02232AB221B2304604F074FAF2
:105300009DF83500132810D1002005F009FB6FF03F
:105310007F4005F001FB8D4805F00CFB2A4604F1A7
:105320001E018BA004F000FB79E09DF835001528E4
:1053300010D1002005F0F4FA6FF07F4005F0ECFA90
:10534000824805F0F7FA2A4604F11E0183A004F012
:10535000EBFA64E09DF83500112810D1002005F02B
:10536000DFFA6FF07F4005F0D7FA784805F0E2FAEF
:105370002A4604F11E017CA004F0D6FA4FE000207A
:1053800005F0CEFA6FF07F4005F0C6FA6F4805F0E1
:10539000D1FA2A4604F1370176A004F0C5FA9DF847
:1053A000381001EB8101744A02EB41002A4604F1F6
:1053B000500104F0B9FA9DF8361001EB41016F4A33
:1053C00002EB8101481C2A4604F1D20104F0ACFA38
:1053D0005D4805F0AFFA9DF8370000E038E00223A1
:1053E0002AB204F11E0109B204F0FEF99DF838005A
:1053F00001280AD19DF83910481C01232AB204F172
:10540000980109B204F0F0F909E09DF83910481C40
:1054100001232AB204F1800109B204F0E5F90DF18B
:105420003A0104A8FCF7BAFF0DF13D0101A80DF007
:105430009FFD05F1280204F10F0104A804F074FA9D
:1054400005F1280204F1910101A804F06DFA76E05B
:105450004B4805F065FA05F141034FF4AA7229465D
:10546000002004F0F3FB6FF07F4005F059FA444848
:1054700005F052FA344805F05DFA02232AB221B24F
:10548000304604F0B1F96FF07F4005F049FA3C482E
:1054900005F042FA2D4805F04DFA2A4604F11E01A6
:1054A00038A004F041FA2A4604F15F0131A004F06B
:1054B0003BFA9DF8381001EB81012F4A02EB4100C5
:1054C0002A4604F18C0104F02FFA9DF8361001EB06
:1054D00041012A4A02EB8101481C2A4604F1E601F7
:1054E00004F022FA184805F025FA9DF83700022347
:1054F0002AB204F14B0109B204F076F99DF83900A3
:1055000001232AB204F1B90109B204F06DF90DF1D9
:105510003A0104A8FCF742FF0DF13D0101A80DF08E
:1055200027FD05F1280204F10F0104A804F0FCF99D
:1055300005F1280204F1910101A804F0F5F907B082
:10554000F0BC5DF814FB00003C7D020858400208E6
:10555000D6F7B5E7B9CAD5CF00000000B1B8B5E7B6
:10556000B9CAD5CF00000000BBD8C2B7B6CCC2B70D
:1055700000000000BAC50000DC2D02080E2E020853
:1055800080808000B1BEBBFA000000000FB4F0B50F
:1055900087B0064615ACB0CC002F7CD1002005F0BA
:1055A000BFF96FF07F4005F0B7F98A4805F0C2F9FE
:1055B00002232AB221B2304604F016F99DF83700D2
:1055C000FD2810D1002005F0ABF96FF07F4005F009
:1055D000A3F9814805F0AEF92A4604F11E017FA027
:1055E00004F0A2F961E09DF83700FE2810D10020F8
:1055F00005F096F96FF07F4005F08EF9764805F0DA
:1056000099F92A4604F11E0177A004F08DF94CE0C7
:10561000002005F085F96FF07F4005F07DF96E48B8
:1056200005F088F92A4604F1370172A004F07CF9EC
:105630009DF8381001EB81016F4A02EB41002A46C8
:1056400004F1500104F070F99DF8361001EB4101AE
:105650006A4A02EB8101481C2A4604F1D20104F097
:1056600063F95C4805F066F99DF8370002232AB219
:1056700004F11E0109B204F0B7F89DF838000128C2
:105680000AD19DF8390001232AB204F1980109B228
:1056900004F0AAF809E021E09DF8390001232AB2BC
:1056A00004F1800109B204F09FF80DF13A0104A859
:1056B000FCF774FE0DF13D0101A80DF059FC05F158
:1056C000280204F10F0104A804F02EF905F12802C4
:1056D00004F1910101A804F027F976E0484805F0AB
:1056E0001FF905F141034FF4AA722946002004F086
:1056F000ADFA6FF07F4005F013F9414805F00CF961
:10570000344805F017F902232AB221B2304604F0DA
:105710006BF86FF07F4005F003F9394805F0FCF8AD
:105720002D4805F007F92A4604F11E0135A004F0C2
:10573000FBF82A4604F15F012EA004F0F5F89DF86D
:10574000381001EB81012C4A02EB41002A4604F19A
:105750008C0104F0E9F89DF8361001EB4101274A6D
:1057600002EB8101481C2A4604F1E60104F0DCF852
:10577000184805F0DFF89DF8370002232AB204F13B
:105780004B0109B204F030F89DF8390001232AB228
:1057900004F1B90109B204F027F80DF13A0104A8A7
:1057A000FCF7FCFD0DF13D0101A80DF0E1FB05F159
:1057B000280204F10F0104A804F0B6F805F128024C
:1057C00004F1910101A804F0AFF807B0F0BC5DF856
:1057D00014FB00003C7D020858400208CAE4C8EBF4
:1057E000BBF0BEAF00000000CAD6B1A8BBF0BEAF90
:1057F00000000000BAC50000DC2D02080E2E0208D1
:1058000080808000B1BEBBFA000000000FB4F0B58C
:1058100087B0064615ACB0CC002F78D1002005F03B
:105820007FF88A4805F078F8894805F083F8022364
:105830002AB221B2304603F0D7FF9DF83700FD2889
:105840000FD1002005F06CF8804805F065F881481C
:1058500005F070F82A4604F11E017FA004F064F8F8
:105860005FE09DF83700FE280FD1002005F058F8C2
:10587000764805F051F8774805F05CF82A4604F1BF
:105880001E0178A004F050F84BE0002005F048F825
:105890006E4805F041F86F4805F04CF82A4604F1CF
:1058A000370173A004F040F89DF8381001EB810136
:1058B000704A02EB41002A4604F1500104F034F82A
:1058C0009DF8361001EB41016B4A02EB8101481C47
:1058D0002A4604F1D20104F027F85D4805F02AF8C1
:1058E0009DF8370002232AB204F11E0109B203F029
:1058F0007BFF9DF8380001280AD19DF8390001236B
:105900002AB204F1980109B203F06EFF09E021E028
:105910009DF8390001232AB204F1800109B203F095
:1059200063FF0DF13A0104A8FCF738FD0DF13D01CC
:1059300001A80DF01DFB05F1280204F10F0104A8D8
:1059400003F0F2FF05F1280204F1910101A803F030
:10595000EBFF76E0494804F0E3FF05F141034FF423
:10596000AA722946002004F071F96FF07F4004F01C
:10597000D7FF364804F0D0FF354804F0DBFF0223A0
:105980002AB221B2304603F02FFF6FF07F4004F0BF
:10599000C7FF2E4804F0C0FF2E4804F0CBFF2A4674
:1059A00004F11E0136A003F0BFFF2A4604F15F0197
:1059B0002FA003F0B9FF9DF8381001EB81012D4AAB
:1059C00002EB41002A4604F18C0103F0ADFF9DF883
:1059D000361001EB4101284A02EB8101481C2A469E
:1059E00004F1E60103F0A0FF194804F0A3FF9DF8BD
:1059F000370002232AB204F14B0109B203F0F4FE8E
:105A00009DF8390001232AB204F1B90109B203F06B
:105A1000EBFE0DF13A0104A8FCF7C0FC0DF13D01CD
:105A200001A80DF0A5FA05F1280204F10F0104A860
:105A300003F07AFF05F1280204F1910101A803F0B7
:105A400073FF07B0F0BC5DF814FB0000D3D3D300A4
:105A50003C7D020858400208CAE4C8EBBBF0BEAF68
:105A600000000000CAD6B1A8BBF0BEAF0000000025
:105A7000BAC50000DC2D02080E2E020880808000CE
:105A8000B1BEBBFA0000000010B5002004F048FFD2
:105A9000094804F041FF094804F04CFF3722142163
:105AA00007A003F041FF094804F044FF37228C218E
:105AB00007A003F039FF10BDD3D3D300584002082C
:105AC000C8EDBCFEB0E6B1BEA3BA00003C7D020842
:105AD00056312E303000000000B589B0142104A8E2
